{
  "address": "0x42Fa929fc636e657AC568C0b5Cf38E203b67aC2b",
  "abi": [
    {
      "inputs": [
        {
          "internalType": "address",
          "name": "_feeToSetter",
          "type": "address"
        }
      ],
      "stateMutability": "nonpayable",
      "type": "constructor"
    },
    {
      "anonymous": false,
      "inputs": [
        {
          "indexed": true,
          "internalType": "address",
          "name": "token0",
          "type": "address"
        },
        {
          "indexed": true,
          "internalType": "address",
          "name": "token1",
          "type": "address"
        },
        {
          "indexed": false,
          "internalType": "address",
          "name": "pair",
          "type": "address"
        },
        {
          "indexed": false,
          "internalType": "uint256",
          "name": "",
          "type": "uint256"
        }
      ],
      "name": "PairCreated",
      "type": "event"
    },
    {
      "inputs": [
        {
          "internalType": "uint256",
          "name": "",
          "type": "uint256"
        }
      ],
      "name": "allPairs",
      "outputs": [
        {
          "internalType": "address",
          "name": "",
          "type": "address"
        }
      ],
      "stateMutability": "view",
      "type": "function"
    },
    {
      "inputs": [],
      "name": "allPairsLength",
      "outputs": [
        {
          "internalType": "uint256",
          "name": "",
          "type": "uint256"
        }
      ],
      "stateMutability": "view",
      "type": "function"
    },
    {
      "inputs": [],
      "name": "blast",
      "outputs": [
        {
          "internalType": "contract IBlast",
          "name": "",
          "type": "address"
        }
      ],
      "stateMutability": "view",
      "type": "function"
    },
    {
      "inputs": [
        {
          "internalType": "address",
          "name": "tokenA",
          "type": "address"
        },
        {
          "internalType": "address",
          "name": "tokenB",
          "type": "address"
        }
      ],
      "name": "createPair",
      "outputs": [
        {
          "internalType": "address",
          "name": "pair",
          "type": "address"
        }
      ],
      "stateMutability": "nonpayable",
      "type": "function"
    },
    {
      "inputs": [],
      "name": "feeTo",
      "outputs": [
        {
          "internalType": "address",
          "name": "",
          "type": "address"
        }
      ],
      "stateMutability": "view",
      "type": "function"
    },
    {
      "inputs": [],
      "name": "feeToSetter",
      "outputs": [
        {
          "internalType": "address",
          "name": "",
          "type": "address"
        }
      ],
      "stateMutability": "view",
      "type": "function"
    },
    {
      "inputs": [
        {
          "internalType": "address",
          "name": "",
          "type": "address"
        },
        {
          "internalType": "address",
          "name": "",
          "type": "address"
        }
      ],
      "name": "getPair",
      "outputs": [
        {
          "internalType": "address",
          "name": "",
          "type": "address"
        }
      ],
      "stateMutability": "view",
      "type": "function"
    },
    {
      "inputs": [],
      "name": "migrator",
      "outputs": [
        {
          "internalType": "address",
          "name": "",
          "type": "address"
        }
      ],
      "stateMutability": "view",
      "type": "function"
    },
    {
      "inputs": [],
      "name": "pairCodeHash",
      "outputs": [
        {
          "internalType": "bytes32",
          "name": "",
          "type": "bytes32"
        }
      ],
      "stateMutability": "pure",
      "type": "function"
    },
    {
      "inputs": [
        {
          "internalType": "address",
          "name": "_feeTo",
          "type": "address"
        }
      ],
      "name": "setFeeTo",
      "outputs": [],
      "stateMutability": "nonpayable",
      "type": "function"
    },
    {
      "inputs": [
        {
          "internalType": "address",
          "name": "_feeToSetter",
          "type": "address"
        }
      ],
      "name": "setFeeToSetter",
      "outputs": [],
      "stateMutability": "nonpayable",
      "type": "function"
    },
    {
      "inputs": [
        {
          "internalType": "address",
          "name": "_migrator",
          "type": "address"
        }
      ],
      "name": "setMigrator",
      "outputs": [],
      "stateMutability": "nonpayable",
      "type": "function"
    }
  ],
  "transactionHash": "0xc1b9b9d6c4888198164c2497f94dd5d6de2538ff3b2a58b222838c87df8aa7fb",
  "args": [
    "0xbfF76182457256808BD11B0cAFc05C35c9E4aa43"
  ],
  "numDeployments": 2,
  "solcInputHash": "a482f12b2192aeec4c6151a3edb3a5c3",
  "bytecode": "0x608060405234801561001057600080fd5b506040516132a63803806132a68339818101604052602081101561003357600080fd5b5051600180546001600160a01b0319166001600160a01b03831617815560405163c8992e6160e01b81527343000000000000000000000000000000000000029163c8992e6191819085906004018083815260200183600181111561009357fe5b8152602001826001600160a01b031681526020019350505050600060405180830381600087803b1580156100c657600080fd5b505af11580156100da573d6000803e3d6000fd5b50505050506131b8806100ee6000396000f3fe608060405234801561001057600080fd5b50600436106100b45760003560e01c80637cd07e47116100715780637cd07e471461014c5780639aab924814610154578063a2e74af61461015c578063c9c6539614610182578063e6a43905146101b0578063f46901ed146101de576100b4565b8063017e7e58146100b9578063094b7415146100dd578063175e1a7d146100e55780631e3dd18b146100ed57806323cf31181461010a578063574f2ba314610132575b600080fd5b6100c1610204565b604080516001600160a01b039092168252519081900360200190f35b6100c1610213565b6100c1610222565b6100c16004803603602081101561010357600080fd5b503561022d565b6101306004803603602081101561012057600080fd5b50356001600160a01b0316610254565b005b61013a6102cc565b60408051918252519081900360200190f35b6100c16102d2565b61013a6102e1565b6101306004803603602081101561017257600080fd5b50356001600160a01b0316610313565b6100c16004803603604081101561019857600080fd5b506001600160a01b038135811691602001351661038b565b6100c1600480360360408110156101c657600080fd5b506001600160a01b03813581169160200135166106b6565b610130600480360360208110156101f457600080fd5b50356001600160a01b03166106dc565b6000546001600160a01b031681565b6001546001600160a01b031681565b6002604360981b0181565b6004818154811061023a57fe5b6000918252602090912001546001600160a01b0316905081565b6001546001600160a01b031633146102aa576040805162461bcd60e51b81526020600482015260146024820152732ab734b9bbb0b82b191d102327a92124a22222a760611b604482015290519081900360640190fd5b600280546001600160a01b0319166001600160a01b0392909216919091179055565b60045490565b6002546001600160a01b031681565b6000604051806020016102f390610754565b6020820181038252601f19601f8201166040525080519060200120905090565b6001546001600160a01b03163314610369576040805162461bcd60e51b81526020600482015260146024820152732ab734b9bbb0b82b191d102327a92124a22222a760611b604482015290519081900360640190fd5b600180546001600160a01b0319166001600160a01b0392909216919091179055565b6000816001600160a01b0316836001600160a01b031614156103f4576040805162461bcd60e51b815260206004820152601e60248201527f556e697377617056323a204944454e544943414c5f4144445245535345530000604482015290519081900360640190fd5b600080836001600160a01b0316856001600160a01b03161061041757838561041a565b84845b90925090506001600160a01b03821661047a576040805162461bcd60e51b815260206004820152601760248201527f556e697377617056323a205a45524f5f41444452455353000000000000000000604482015290519081900360640190fd5b6001600160a01b038281166000908152600360209081526040808320858516845290915290205416156104ed576040805162461bcd60e51b8152602060048201526016602482015275556e697377617056323a20504149525f45584953545360501b604482015290519081900360640190fd5b6060604051806020016104ff90610754565b6020820181038252601f19601f8201166040525090506000838360405160200180836001600160a01b031660601b8152601401826001600160a01b031660601b815260140192505050604051602081830303815290604052805190602001209050808251602084016000f59450846001600160a01b031663485cc95585856040518363ffffffff1660e01b815260040180836001600160a01b03168152602001826001600160a01b0316815260200192505050600060405180830381600087803b1580156105cc57600080fd5b505af11580156105e0573d6000803e3d6000fd5b505050506001600160a01b0384811660008181526003602081815260408084208987168086529083528185208054978d166001600160a01b031998891681179091559383528185208686528352818520805488168517905560048054600181018255958190527f8a35acfbc15ff81a39ae7d344fd709f28e8600b4aa8c65c6b64bfe7fe36bd19b90950180549097168417909655925483519283529082015281517f0d3648bd0f6ba80134a33ba9275ac585d9d315f0ad8355cddefde31afa28d0e9929181900390910190a35050505092915050565b60036020908152600092835260408084209091529082529020546001600160a01b031681565b6001546001600160a01b03163314610732576040805162461bcd60e51b81526020600482015260146024820152732ab734b9bbb0b82b191d102327a92124a22222a760611b604482015290519081900360640190fd5b600080546001600160a01b0319166001600160a01b0392909216919091179055565b612a2080620007638339019056fe60806040526001600c553480156200001657600080fd5b50604080518082018252601281527129bab9b434a9bbb0b8102628102a37b5b2b760711b602091820152815180830183526001808252603160f81b9183019190915282517f8b73c3c69bb8fe3d512ecc4cf759cc79239f7b179b0ffacaa9a75d522b39400f818401527fefbffe65652a145845c9bc8d0532945be6b9830fe1e9966c887bd298e551ac83818501527fc89efdaa54c0f20c7adf612882df0950f5a951637e0307cdcb4c672f298b8bc660608201524660808201523060a0808301919091528451808303909101815260c08201808652815191850191909120600355600580546001600160a01b03191633179081905563094b741560e01b90915293517343000000000000000000000000000000000000029463c8992e619484936001600160a01b03929092169263094b74159260c4808201939291829003018186803b1580156200016657600080fd5b505afa1580156200017b573d6000803e3d6000fd5b505050506040513d60208110156200019257600080fd5b50516040516001600160e01b031960e086901b16815260040180846002811115620001b957fe5b8152602001836001811115620001cb57fe5b8152602001826001600160a01b031681526020019350505050600060405180830381600087803b158015620001ff57600080fd5b505af115801562000214573d6000803e3d6000fd5b5050604080516336b91f2b60e01b8152735a16b92a1ec707793171b678ebed9b5ae52978a660048201529051732536fe9ab3f511540f2f9e2ec2a805005c3dd80093506336b91f2b9250602480830192600092919082900301818387803b1580156200027f57600080fd5b505af115801562000294573d6000803e3d6000fd5b5050604051631a33757d60e01b81527343000000000000000000000000000000000000039250631a33757d915060029060040180828152602001915050602060405180830381600087803b158015620002ec57600080fd5b505af115801562000301573d6000803e3d6000fd5b505050506040513d60208110156200031857600080fd5b5050604051631a33757d60e01b815273430000000000000000000000000000000000000490631a33757d9060029060040180828152602001915050602060405180830381600087803b1580156200036e57600080fd5b505af115801562000383573d6000803e3d6000fd5b505050506040513d60208110156200039a57600080fd5b505061267480620003ac6000396000f3fe608060405234801561001057600080fd5b50600436106101c45760003560e01c806370a08231116100f9578063bc25cf7711610097578063d21220a711610071578063d21220a714610575578063d505accf1461057d578063dd62ed3e146105ce578063fff6cae9146105fc576101c4565b8063bc25cf7714610521578063c2d94aec14610547578063c45a01551461056d576101c4565b806389afcb44116100d357806389afcb44146104a657806395d89b41146104e5578063a9059cbb146104ed578063ba9a7a5614610519576101c4565b806370a08231146104525780637464fc3d146104785780637ecebe0014610480576101c4565b806330adf81f11610166578063485cc95511610140578063485cc955146103ee5780635909c0d51461041c5780635a3d5493146104245780636a6278421461042c576101c4565b806330adf81f146103c0578063313ce567146103c85780633644e515146103e6576101c4565b8063095ea7b3116101a2578063095ea7b31461030c5780630dfe16811461034c57806318160ddd1461037057806323b872dd1461038a576101c4565b8063022c0d9f146101c957806306fdde03146102575780630902f1ac146102d4575b600080fd5b610255600480360360808110156101df57600080fd5b8135916020810135916001600160a01b03604083013516919081019060808101606082013564010000000081111561021657600080fd5b82018360208201111561022857600080fd5b8035906020019184600183028401116401000000008311171561024a57600080fd5b509092509050610604565b005b61025f610b0c565b6040805160208082528351818301528351919283929083019185019080838360005b83811015610299578181015183820152602001610281565b50505050905090810190601f1680156102c65780820380516001836020036101000a031916815260200191505b509250505060405180910390f35b6102dc610b3a565b604080516001600160701b03948516815292909316602083015263ffffffff168183015290519081900360600190f35b6103386004803603604081101561032257600080fd5b506001600160a01b038135169060200135610b64565b604080519115158252519081900360200190f35b610354610b7b565b604080516001600160a01b039092168252519081900360200190f35b610378610b8a565b60408051918252519081900360200190f35b610338600480360360608110156103a057600080fd5b506001600160a01b03813581169160208101359091169060400135610b90565b610378610c24565b6103d0610c48565b6040805160ff9092168252519081900360200190f35b610378610c4d565b6102556004803603604081101561040457600080fd5b506001600160a01b0381358116916020013516610c53565b610378610cd7565b610378610cdd565b6103786004803603602081101561044257600080fd5b50356001600160a01b0316610ce3565b6103786004803603602081101561046857600080fd5b50356001600160a01b031661115f565b610378611171565b6103786004803603602081101561049657600080fd5b50356001600160a01b0316611177565b6104cc600480360360208110156104bc57600080fd5b50356001600160a01b0316611189565b6040805192835260208301919091528051918290030190f35b61025f61151d565b6103386004803603604081101561050357600080fd5b506001600160a01b03813516906020013561153c565b610378611549565b6102556004803603602081101561053757600080fd5b50356001600160a01b031661154f565b6102556004803603602081101561055d57600080fd5b50356001600160a01b03166116c1565b61035461197d565b61035461198c565b610255600480360360e081101561059357600080fd5b506001600160a01b03813581169160208101359091169060408101359060608101359060ff6080820135169060a08101359060c0013561199b565b610378600480360360408110156105e457600080fd5b506001600160a01b0381358116916020013516611b9d565b610255611bba565b600c5460011461064f576040805162461bcd60e51b8152602060048201526011602482015270155b9a5cddd85c158c8e881313d0d2d151607a1b604482015290519081900360640190fd5b6000600c55841515806106625750600084115b61069d5760405162461bcd60e51b81526004018080602001828103825260258152602001806125856025913960400191505060405180910390fd5b6000806106a8610b3a565b5091509150816001600160701b0316871080156106cd5750806001600160701b031686105b6107085760405162461bcd60e51b81526004018080602001828103825260218152602001806125ce6021913960400191505060405180910390fd5b60065460075460009182916001600160a01b039182169190811690891682148015906107465750806001600160a01b0316896001600160a01b031614155b61078f576040805162461bcd60e51b8152602060048201526015602482015274556e697377617056323a20494e56414c49445f544f60581b604482015290519081900360640190fd5b8a156107a0576107a0828a8d611d1c565b89156107b1576107b1818a8c611d1c565b861561086357886001600160a01b03166310d1e85c338d8d8c8c6040518663ffffffff1660e01b815260040180866001600160a01b03168152602001858152602001848152602001806020018281038252848482818152602001925080828437600081840152601f19601f8201169050808301925050509650505050505050600060405180830381600087803b15801561084a57600080fd5b505af115801561085e573d6000803e3d6000fd5b505050505b604080516370a0823160e01b815230600482015290516001600160a01b038416916370a08231916024808301926020929190829003018186803b1580156108a957600080fd5b505afa1580156108bd573d6000803e3d6000fd5b505050506040513d60208110156108d357600080fd5b5051604080516370a0823160e01b815230600482015290519195506001600160a01b038316916370a0823191602480820192602092909190829003018186803b15801561091f57600080fd5b505afa158015610933573d6000803e3d6000fd5b505050506040513d602081101561094957600080fd5b5051925060009150506001600160701b0385168a9003831161096c57600061097b565b89856001600160701b03160383035b9050600089856001600160701b03160383116109985760006109a7565b89856001600160701b03160383035b905060008211806109b85750600081115b6109f35760405162461bcd60e51b81526004018080602001828103825260248152602001806125aa6024913960400191505060405180910390fd5b6000610a15610a03846003611eb6565b610a0f876103e8611eb6565b90611f19565b90506000610a27610a03846003611eb6565b9050610a4c620f4240610a466001600160701b038b8116908b16611eb6565b90611eb6565b610a568383611eb6565b1015610a98576040805162461bcd60e51b815260206004820152600c60248201526b556e697377617056323a204b60a01b604482015290519081900360640190fd5b5050610aa684848888611f69565b60408051838152602081018390528082018d9052606081018c905290516001600160a01b038b169133917fd78ad95fa46c994b6551d0da85fc275fe613ce37657fb8d5e3d130840159d8229181900360800190a350506001600c55505050505050505050565b6040518060400160405280601281526020017129bab9b434a9bbb0b8102628102a37b5b2b760711b81525081565b6008546001600160701b0380821692600160701b830490911691600160e01b900463ffffffff1690565b6000610b71338484612128565b5060015b92915050565b6006546001600160a01b031681565b60005481565b6001600160a01b038316600090815260026020908152604080832033845290915281205460001914610c0f576001600160a01b0384166000908152600260209081526040808320338452909152902054610bea9083611f19565b6001600160a01b03851660009081526002602090815260408083203384529091529020555b610c1a84848461218a565b5060019392505050565b7f6e71edae12b1b97f4d1f60370fef10105fa2faae0126114a169c64845d6126c981565b601281565b60035481565b6005546001600160a01b03163314610ca9576040805162461bcd60e51b81526020600482015260146024820152732ab734b9bbb0b82b191d102327a92124a22222a760611b604482015290519081900360640190fd5b600680546001600160a01b039384166001600160a01b03199182161790915560078054929093169116179055565b60095481565b600a5481565b6000600c54600114610d30576040805162461bcd60e51b8152602060048201526011602482015270155b9a5cddd85c158c8e881313d0d2d151607a1b604482015290519081900360640190fd5b6000600c81905580610d40610b3a565b50600654604080516370a0823160e01b815230600482015290519395509193506000926001600160a01b03909116916370a08231916024808301926020929190829003018186803b158015610d9457600080fd5b505afa158015610da8573d6000803e3d6000fd5b505050506040513d6020811015610dbe57600080fd5b5051600754604080516370a0823160e01b815230600482015290519293506000926001600160a01b03909216916370a0823191602480820192602092909190829003018186803b158015610e1157600080fd5b505afa158015610e25573d6000803e3d6000fd5b505050506040513d6020811015610e3b57600080fd5b505190506000610e54836001600160701b038716611f19565b90506000610e6b836001600160701b038716611f19565b90506000610e798787612238565b600054909150806110505760055460408051637cd07e4760e01b815290516000926001600160a01b031691637cd07e47916004808301926020929190829003018186803b158015610ec957600080fd5b505afa158015610edd573d6000803e3d6000fd5b505050506040513d6020811015610ef357600080fd5b50519050336001600160a01b0382161415610fce57806001600160a01b03166340dc0e376040518163ffffffff1660e01b815260040160206040518083038186803b158015610f4157600080fd5b505afa158015610f55573d6000803e3d6000fd5b505050506040513d6020811015610f6b57600080fd5b505199508915801590610f8057506000198a14155b610fc9576040805162461bcd60e51b81526020600482015260156024820152744261642064657369726564206c697175696469747960581b604482015290519081900360640190fd5b61104a565b6001600160a01b03811615611023576040805162461bcd60e51b815260206004820152601660248201527526bab9ba103737ba103430bb329036b4b3b930ba37b960511b604482015290519081900360640190fd5b61103b6103e8610a0f6110368888611eb6565b612378565b995061104a60006103e86123ca565b50611093565b6110906001600160701b0389166110678684611eb6565b8161106e57fe5b046001600160701b0389166110838685611eb6565b8161108a57fe5b04612454565b98505b600089116110d25760405162461bcd60e51b81526004018080602001828103825260288152602001806126176028913960400191505060405180910390fd5b6110dc8a8a6123ca565b6110e886868a8a611f69565b81156111125760085461110e906001600160701b0380821691600160701b900416611eb6565b600b555b6040805185815260208101859052815133927f4c209b5fc8ad50758f13e2e1088ba56a560dff690a1c6fef26394f4c03821c4f928290030190a250506001600c5550949695505050505050565b60016020526000908152604090205481565b600b5481565b60046020526000908152604090205481565b600080600c546001146111d7576040805162461bcd60e51b8152602060048201526011602482015270155b9a5cddd85c158c8e881313d0d2d151607a1b604482015290519081900360640190fd5b6000600c819055806111e7610b3a565b50600654600754604080516370a0823160e01b815230600482015290519496509294506001600160a01b039182169391169160009184916370a08231916024808301926020929190829003018186803b15801561124357600080fd5b505afa158015611257573d6000803e3d6000fd5b505050506040513d602081101561126d57600080fd5b5051604080516370a0823160e01b815230600482015290519192506000916001600160a01b038516916370a08231916024808301926020929190829003018186803b1580156112bb57600080fd5b505afa1580156112cf573d6000803e3d6000fd5b505050506040513d60208110156112e557600080fd5b5051306000908152600160205260408120549192506113048888612238565b600054909150806113158487611eb6565b8161131c57fe5b049a508061132a8486611eb6565b8161133157fe5b04995060008b118015611344575060008a115b61137f5760405162461bcd60e51b81526004018080602001828103825260288152602001806125ef6028913960400191505060405180910390fd5b611389308461246c565b611394878d8d611d1c565b61139f868d8c611d1c565b604080516370a0823160e01b815230600482015290516001600160a01b038916916370a08231916024808301926020929190829003018186803b1580156113e557600080fd5b505afa1580156113f9573d6000803e3d6000fd5b505050506040513d602081101561140f57600080fd5b5051604080516370a0823160e01b815230600482015290519196506001600160a01b038816916370a0823191602480820192602092909190829003018186803b15801561145b57600080fd5b505afa15801561146f573d6000803e3d6000fd5b505050506040513d602081101561148557600080fd5b5051935061149585858b8b611f69565b81156114bf576008546114bb906001600160701b0380821691600160701b900416611eb6565b600b555b604080518c8152602081018c905281516001600160a01b038f169233927fdccd412f0b1252819cb1fd330b93224ca42612892bb3f4f789976e6d81936496929081900390910190a35050505050505050506001600c81905550915091565b604051806040016040528060038152602001620534c560ec1b81525081565b6000610b7133848461218a565b6103e881565b600c5460011461159a576040805162461bcd60e51b8152602060048201526011602482015270155b9a5cddd85c158c8e881313d0d2d151607a1b604482015290519081900360640190fd5b6000600c55600654600754600854604080516370a0823160e01b815230600482015290516001600160a01b039485169490931692611643928592879261163e926001600160701b03169185916370a0823191602480820192602092909190829003018186803b15801561160c57600080fd5b505afa158015611620573d6000803e3d6000fd5b505050506040513d602081101561163657600080fd5b505190611f19565b611d1c565b6116b7818461163e6008600e9054906101000a90046001600160701b03166001600160701b0316856001600160a01b03166370a08231306040518263ffffffff1660e01b815260040180826001600160a01b0316815260200191505060206040518083038186803b15801561160c57600080fd5b50506001600c5550565b600560009054906101000a90046001600160a01b03166001600160a01b031663094b74156040518163ffffffff1660e01b815260040160206040518083038186803b15801561170f57600080fd5b505afa158015611723573d6000803e3d6000fd5b505050506040513d602081101561173957600080fd5b50516001600160a01b0316331461178e576040805162461bcd60e51b81526020600482015260146024820152732ab734b9bbb0b82b191d102327a92124a22222a760611b604482015290519081900360640190fd5b6040805163e12f3a6160e01b815230600482015290516003604360981b019163aad3ec96918491849163e12f3a6191602480820192602092909190829003018186803b1580156117dd57600080fd5b505afa1580156117f1573d6000803e3d6000fd5b505050506040513d602081101561180757600080fd5b5051604080516001600160e01b031960e086901b1681526001600160a01b03909316600484015260248301919091525160448083019260209291908290030181600087803b15801561185857600080fd5b505af115801561186c573d6000803e3d6000fd5b505050506040513d602081101561188257600080fd5b50506040805163e12f3a6160e01b815230600482015290516004604360981b019163aad3ec96918491849163e12f3a6191602480820192602092909190829003018186803b1580156118d357600080fd5b505afa1580156118e7573d6000803e3d6000fd5b505050506040513d60208110156118fd57600080fd5b5051604080516001600160e01b031960e086901b1681526001600160a01b03909316600484015260248301919091525160448083019260209291908290030181600087803b15801561194e57600080fd5b505af1158015611962573d6000803e3d6000fd5b505050506040513d602081101561197857600080fd5b505050565b6005546001600160a01b031681565b6007546001600160a01b031681565b428410156119e5576040805162461bcd60e51b8152602060048201526012602482015271155b9a5cddd85c158c8e881156141254915160721b604482015290519081900360640190fd5b6003546001600160a01b0380891660008181526004602090815260408083208054600180820190925582517f6e71edae12b1b97f4d1f60370fef10105fa2faae0126114a169c64845d6126c98186015280840196909652958d166060860152608085018c905260a085019590955260c08085018b90528151808603909101815260e08501825280519083012061190160f01b6101008601526101028501969096526101228085019690965280518085039096018652610142840180825286519683019690962095839052610162840180825286905260ff89166101828501526101a284018890526101c28401879052519193926101e280820193601f1981019281900390910190855afa158015611b00573d6000803e3d6000fd5b5050604051601f1901519150506001600160a01b03811615801590611b365750886001600160a01b0316816001600160a01b0316145b611b87576040805162461bcd60e51b815260206004820152601c60248201527f556e697377617056323a20494e56414c49445f5349474e415455524500000000604482015290519081900360640190fd5b611b92898989612128565b505050505050505050565b600260209081526000928352604080842090915290825290205481565b600c54600114611c05576040805162461bcd60e51b8152602060048201526011602482015270155b9a5cddd85c158c8e881313d0d2d151607a1b604482015290519081900360640190fd5b6000600c55600654604080516370a0823160e01b81523060048201529051611d15926001600160a01b0316916370a08231916024808301926020929190829003018186803b158015611c5657600080fd5b505afa158015611c6a573d6000803e3d6000fd5b505050506040513d6020811015611c8057600080fd5b5051600754604080516370a0823160e01b815230600482015290516001600160a01b03909216916370a0823191602480820192602092909190829003018186803b158015611ccd57600080fd5b505afa158015611ce1573d6000803e3d6000fd5b505050506040513d6020811015611cf757600080fd5b50516008546001600160701b0380821691600160701b900416611f69565b6001600c55565b604080518082018252601981527f7472616e7366657228616464726573732c75696e74323536290000000000000060209182015281516001600160a01b0385811660248301526044808301869052845180840390910181526064909201845291810180516001600160e01b031663a9059cbb60e01b1781529251815160009460609489169392918291908083835b60208310611dc95780518252601f199092019160209182019101611daa565b6001836020036101000a0380198251168184511680821785525050505050509050019150506000604051808303816000865af19150503d8060008114611e2b576040519150601f19603f3d011682016040523d82523d6000602084013e611e30565b606091505b5091509150818015611e5e575080511580611e5e5750808060200190516020811015611e5b57600080fd5b50515b611eaf576040805162461bcd60e51b815260206004820152601a60248201527f556e697377617056323a205452414e534645525f4641494c4544000000000000604482015290519081900360640190fd5b5050505050565b6000811580611ed157505080820282828281611ece57fe5b04145b610b75576040805162461bcd60e51b815260206004820152601460248201527364732d6d6174682d6d756c2d6f766572666c6f7760601b604482015290519081900360640190fd5b80820382811115610b75576040805162461bcd60e51b815260206004820152601560248201527464732d6d6174682d7375622d756e646572666c6f7760581b604482015290519081900360640190fd5b6001600160701b038411801590611f8757506001600160701b038311155b611fce576040805162461bcd60e51b8152602060048201526013602482015272556e697377617056323a204f564552464c4f5760681b604482015290519081900360640190fd5b60085463ffffffff42811691600160e01b90048116820390811615801590611ffe57506001600160701b03841615155b801561201257506001600160701b03831615155b1561207d578063ffffffff1661203a8561202b866124fe565b6001600160e01b031690612510565b600980546001600160e01b03929092169290920201905563ffffffff81166120658461202b876124fe565b600a80546001600160e01b0392909216929092020190555b600880546dffffffffffffffffffffffffffff19166001600160701b03888116919091176dffffffffffffffffffffffffffff60701b1916600160701b8883168102919091176001600160e01b0316600160e01b63ffffffff871602179283905560408051848416815291909304909116602082015281517f1c411e9a96e071241c2f21f7726b17ae89e3cab4c78be50e062b03a9fffbbad1929181900390910190a1505050505050565b6001600160a01b03808416600081815260026020908152604080832094871680845294825291829020859055815185815291517f8c5be1e5ebec7d5bd14f71427d1e84f3dd0314c0f7b2291e5b200ac8c7c3b9259281900390910190a3505050565b6001600160a01b0383166000908152600160205260409020546121ad9082611f19565b6001600160a01b0380851660009081526001602052604080822093909355908416815220546121dc9082612535565b6001600160a01b0380841660008181526001602090815260409182902094909455805185815290519193928716927fddf252ad1be2c89b69c2b068fc378daa952ba7f163c4a11628f55a4df523b3ef92918290030190a3505050565b600080600560009054906101000a90046001600160a01b03166001600160a01b031663017e7e586040518163ffffffff1660e01b815260040160206040518083038186803b15801561228957600080fd5b505afa15801561229d573d6000803e3d6000fd5b505050506040513d60208110156122b357600080fd5b5051600b546001600160a01b03821615801594509192509061236457801561235f5760006122f06110366001600160701b03888116908816611eb6565b905060006122fd83612378565b90508082111561235c57600061231f6123168484611f19565b60005490611eb6565b9050600061233883612332866005611eb6565b90612535565b9050600081838161234557fe5b04905080156123585761235887826123ca565b5050505b50505b612370565b8015612370576000600b555b505092915050565b600060038211156123bb575080600160028204015b818110156123b5578091506002818285816123a457fe5b0401816123ad57fe5b04905061238d565b506123c5565b81156123c5575060015b919050565b6000546123d79082612535565b60009081556001600160a01b0383168152600160205260409020546123fc9082612535565b6001600160a01b03831660008181526001602090815260408083209490945583518581529351929391927fddf252ad1be2c89b69c2b068fc378daa952ba7f163c4a11628f55a4df523b3ef9281900390910190a35050565b60008183106124635781612465565b825b9392505050565b6001600160a01b03821660009081526001602052604090205461248f9082611f19565b6001600160a01b038316600090815260016020526040812091909155546124b69082611f19565b60009081556040805183815290516001600160a01b038516917fddf252ad1be2c89b69c2b068fc378daa952ba7f163c4a11628f55a4df523b3ef919081900360200190a35050565b6001600160701b0316600160701b0290565b60006001600160701b0382166001600160e01b0384168161252d57fe5b049392505050565b80820182811015610b75576040805162461bcd60e51b815260206004820152601460248201527364732d6d6174682d6164642d6f766572666c6f7760601b604482015290519081900360640190fdfe556e697377617056323a20494e53554646494349454e545f4f55545055545f414d4f554e54556e697377617056323a20494e53554646494349454e545f494e5055545f414d4f554e54556e697377617056323a20494e53554646494349454e545f4c4951554944495459556e697377617056323a20494e53554646494349454e545f4c49515549444954595f4255524e4544556e697377617056323a20494e53554646494349454e545f4c49515549444954595f4d494e544544a2646970667358221220cd40be287d9db572d2e0042344e77a2ec98544d70ec7398f8bd99ea3e241ae4c64736f6c634300060c0033a26469706673582212206bcea34c3ccbbc8be5be7f252784051ed0d25b9ecaccfad2d7f371b770e9fd5364736f6c634300060c0033",
  "devdoc": {
    "kind": "dev",
    "methods": {},
    "version": 1
  },
  "userdoc": {
    "kind": "user",
    "methods": {},
    "version": 1
  },
  "storageLayout": {
    "storage": [
      {
        "astId": 1627,
        "contract": "contracts/UniswapV2Factory.sol:UniswapV2Factory",
        "label": "feeTo",
        "offset": 0,
        "slot": "0",
        "type": "t_address"
      },
      {
        "astId": 1630,
        "contract": "contracts/UniswapV2Factory.sol:UniswapV2Factory",
        "label": "feeToSetter",
        "offset": 0,
        "slot": "1",
        "type": "t_address"
      },
      {
        "astId": 1633,
        "contract": "contracts/UniswapV2Factory.sol:UniswapV2Factory",
        "label": "migrator",
        "offset": 0,
        "slot": "2",
        "type": "t_address"
      },
      {
        "astId": 1640,
        "contract": "contracts/UniswapV2Factory.sol:UniswapV2Factory",
        "label": "getPair",
        "offset": 0,
        "slot": "3",
        "type": "t_mapping(t_address,t_mapping(t_address,t_address))"
      },
      {
        "astId": 1644,
        "contract": "contracts/UniswapV2Factory.sol:UniswapV2Factory",
        "label": "allPairs",
        "offset": 0,
        "slot": "4",
        "type": "t_array(t_address)dyn_storage"
      }
    ],
    "types": {
      "t_address": {
        "encoding": "inplace",
        "label": "address",
        "numberOfBytes": "20"
      },
      "t_array(t_address)dyn_storage": {
        "base": "t_address",
        "encoding": "dynamic_array",
        "label": "address[]",
        "numberOfBytes": "32"
      },
      "t_mapping(t_address,t_address)": {
        "encoding": "mapping",
        "key": "t_address",
        "label": "mapping(address => address)",
        "numberOfBytes": "32",
        "value": "t_address"
      },
      "t_mapping(t_address,t_mapping(t_address,t_address))": {
        "encoding": "mapping",
        "key": "t_address",
        "label": "mapping(address => mapping(address => address))",
        "numberOfBytes": "32",
        "value": "t_mapping(t_address,t_address)"
      }
    }
  }
}